{"abi":[{"type":"constructor","inputs":[{"name":"registrationAddress","type":"address","internalType":"address"},{"name":"requestAddress","type":"address","internalType":"address"}],"stateMutability":"nonpayable"},{"type":"receive","stateMutability":"payable"},{"type":"function","name":"confirmArrival","inputs":[{"name":"rideId","type":"uint256","internalType":"uint256"}],"outputs":[],"stateMutability":"nonpayable"},{"type":"function","name":"confirmDeparture","inputs":[{"name":"rideId","type":"uint256","internalType":"uint256"}],"outputs":[],"stateMutability":"nonpayable"},{"type":"function","name":"incrementRideCount","inputs":[{"name":"driverAddress","type":"address","internalType":"address"}],"outputs":[],"stateMutability":"nonpayable"},{"type":"function","name":"owner","inputs":[],"outputs":[{"name":"","type":"address","internalType":"address"}],"stateMutability":"view"},{"type":"function","name":"proposeRidePrice","inputs":[{"name":"ride_id","type":"uint256","internalType":"uint256"},{"name":"price","type":"uint256","internalType":"uint256"}],"outputs":[],"stateMutability":"nonpayable"},{"type":"function","name":"registerAsDriver","inputs":[],"outputs":[],"stateMutability":"payable"},{"type":"function","name":"registration","inputs":[],"outputs":[{"name":"","type":"address","internalType":"contract IRegistrationContract"}],"stateMutability":"view"},{"type":"function","name":"request","inputs":[],"outputs":[{"name":"","type":"address","internalType":"contract IRideRequestContract"}],"stateMutability":"view"},{"type":"function","name":"updateRegistrationAddress","inputs":[{"name":"newAddress","type":"address","internalType":"address"}],"outputs":[],"stateMutability":"nonpayable"},{"type":"function","name":"viewMyDriverData","inputs":[],"outputs":[{"name":"driverAddress","type":"address","internalType":"address"},{"name":"collateral","type":"uint256","internalType":"uint256"},{"name":"rating","type":"uint256","internalType":"uint256"},{"name":"rideCount","type":"uint256","internalType":"uint256"},{"name":"registered","type":"bool","internalType":"bool"}],"stateMutability":"view"},{"type":"function","name":"withdrawRequest","inputs":[],"outputs":[],"stateMutability":"nonpayable"},{"type":"event","name":"DriverRegistered","inputs":[{"name":"driver","type":"address","indexed":true,"internalType":"address"},{"name":"collateral","type":"uint256","indexed":false,"internalType":"uint256"}],"anonymous":false},{"type":"event","name":"FundsWithdrawn","inputs":[{"name":"driver","type":"address","indexed":true,"internalType":"address"}],"anonymous":false},{"type":"event","name":"RideProposalSubmitted","inputs":[{"name":"driver","type":"address","indexed":true,"internalType":"address"},{"name":"price","type":"uint256","indexed":false,"internalType":"uint256"},{"name":"ride_id","type":"uint256","indexed":false,"internalType":"uint256"}],"anonymous":false}],"bytecode":{"object":"0x6080604052346100305761001a610014610104565b9061022e565b610022610035565b611387610261823961138790f35b61003b565b60405190565b5f80fd5b601f801991011690565b634e487b7160e01b5f52604160045260245ffd5b906100679061003f565b810190811060018060401b0382111761007f57604052565b610049565b90610097610090610035565b928361005d565b565b5f80fd5b60018060a01b031690565b6100b19061009d565b90565b6100bd816100a8565b036100c457565b5f80fd5b905051906100d5826100b4565b565b91906040838203126100ff57806100f36100fc925f86016100c8565b936020016100c8565b90565b610099565b6101226115e88038038061011781610084565b9283398101906100d7565b9091565b5f1b90565b9061013c60018060a01b0391610126565b9181191691161790565b90565b61015d6101586101629261009d565b610146565b61009d565b90565b61016e90610149565b90565b61017a90610165565b90565b90565b9061019561019061019c92610171565b61017d565b825461012b565b9055565b6101a990610149565b90565b6101b5906101a0565b90565b6101c1906101a0565b90565b90565b906101dc6101d76101e3926101b8565b6101c4565b825461012b565b9055565b6101f090610149565b90565b6101fc906101e7565b90565b610208906101e7565b90565b90565b9061022361021e61022a926101ff565b61020b565b825461012b565b9055565b61025e9161025261024b61025793610246335f610180565b6101ac565b60016101c7565b6101f3565b600261020e565b56fe60806040526004361015610018575b366105ce5761132f565b6100225f356100d1565b806317910cae146100cc578063227df654146100c7578063338cdca1146100c2578063380e687a146100bd5780633eef3b86146100b8578063443bd1d0146100b35780634f0d1b49146100ae5780637981d624146100a95780638da5cb5b146100a4578063ae7784d71461009f5763bf79a23a0361000e5761059b565b610568565b610533565b6104ac565b610455565b6103a7565b610310565b6102dd565b6102a8565b6101c8565b610142565b60e01c90565b60405190565b5f80fd5b5f80fd5b60018060a01b031690565b6100f9906100e5565b90565b610105816100f0565b0361010c57565b5f80fd5b9050359061011d826100fc565b565b9060208282031261013857610135915f01610110565b90565b6100e1565b5f0190565b346101705761015a61015536600461011f565b610926565b6101626100d7565b8061016c8161013d565b0390f35b6100dd565b90565b61018181610175565b0361018857565b5f80fd5b9050359061019982610178565b565b91906040838203126101c357806101b76101c0925f860161018c565b9360200161018c565b90565b6100e1565b346101f7576101e16101db36600461019b565b906109b3565b6101e96100d7565b806101f38161013d565b0390f35b6100dd565b5f91031261020657565b6100e1565b1c90565b60018060a01b031690565b61022a90600861022f930261020b565b61020f565b90565b9061023d915461021a565b90565b61024c60025f90610232565b90565b90565b61026661026161026b926100e5565b61024f565b6100e5565b90565b61027790610252565b90565b6102839061026e565b90565b61028f9061027a565b9052565b91906102a6905f60208501940190610286565b565b346102d8576102b83660046101fc565b6102d46102c3610240565b6102cb6100d7565b91829182610293565b0390f35b6100dd565b3461030b576102ed3660046101fc565b6102f5610d98565b6102fd6100d7565b806103078161013d565b0390f35b6100dd565b61031b3660046101fc565b610323610e39565b61032b6100d7565b806103358161013d565b0390f35b60018060a01b031690565b610354906008610359930261020b565b610339565b90565b906103679154610344565b90565b61037660015f9061035c565b90565b6103829061026e565b90565b61038e90610379565b9052565b91906103a5905f60208501940190610385565b565b346103d7576103b73660046101fc565b6103d36103c261036a565b6103ca6100d7565b91829182610392565b0390f35b6100dd565b6103e5906100f0565b9052565b6103f290610175565b9052565b151590565b610404906103f6565b9052565b909594926104539461044261044c9261043860809661042e60a088019c5f8901906103dc565b60208701906103e9565b60408501906103e9565b60608301906103e9565b01906103fb565b565b34610489576104653660046101fc565b61048561047061102d565b9161047c9593956100d7565b95869586610408565b0390f35b6100dd565b906020828203126104a7576104a4915f0161018c565b90565b6100e1565b346104da576104c46104bf36600461048e565b6110fe565b6104cc6100d7565b806104d68161013d565b0390f35b6100dd565b60018060a01b031690565b6104fa9060086104ff930261020b565b6104df565b90565b9061050d91546104ea565b90565b61051b5f5f90610502565b90565b9190610531905f602085019401906103dc565b565b34610563576105433660046101fc565b61055f61054e610510565b6105566100d7565b9182918261051e565b0390f35b6100dd565b346105965761058061057b36600461048e565b61118f565b6105886100d7565b806105928161013d565b0390f35b6100dd565b346105c9576105b36105ae36600461011f565b6112cb565b6105bb6100d7565b806105c58161013d565b0390f35b6100dd565b5f80fd5b5f1c90565b6105e36105e8916105d2565b6104df565b90565b6105f590546105d7565b90565b60209181520190565b5f7f4e6f7420746865206f776e657200000000000000000000000000000000000000910152565b610635600d6020926105f8565b61063e81610601565b0190565b6106579060208101905f818303910152610628565b90565b1561066157565b6106696100d7565b62461bcd60e51b81528061067f60048201610642565b0390fd5b6106b0906106ab336106a561069f61069a5f6105eb565b6100f0565b916100f0565b1461065a565b610806565b565b6106be6106c3916105d2565b610339565b90565b6106d090546106b2565b90565b5f80fd5b601f801991011690565b634e487b7160e01b5f52604160045260245ffd5b906106ff906106d7565b810190811067ffffffffffffffff82111761071957604052565b6106e1565b60e01b90565b61072d816103f6565b0361073457565b5f80fd5b9050519061074582610724565b565b906020828203126107605761075d915f01610738565b90565b6100e1565b61076d6100d7565b3d5f823e3d90fd5b5f7f447269766572206e6f7420726567697374657265640000000000000000000000910152565b6107a960156020926105f8565b6107b281610775565b0190565b6107cb9060208101905f81830391015261079c565b90565b156107d557565b6107dd6100d7565b62461bcd60e51b8152806107f3600482016107b6565b0390fd5b5f91031261080157565b6100e1565b610847602061081d61081860016106c6565b610379565b639bb577009061083c85926108306100d7565b9586948593849361071e565b83526004830161051e565b03915afa801561092157610862915f916108f3575b506107ce565b61087461086f60016106c6565b610379565b906366d7b6f290823b156108ee576108ab926108a05f80946108946100d7565b9687958694859361071e565b83526004830161051e565b03925af180156108e9576108bd575b50565b6108dc905f3d81116108e2575b6108d481836106f5565b8101906107f7565b5f6108ba565b503d6108ca565b610765565b6106d3565b610914915060203d811161091a575b61090c81836106f5565b810190610747565b5f61085c565b503d610902565b610765565b61092f90610683565b565b61093a9061026e565b90565b91602061095e92949361095760408201965f8301906103e9565b01906103e9565b565b61096c610971916105d2565b61020f565b90565b61097e9054610960565b90565b6040906109aa6109b194969593966109a060608401985f8501906103dc565b60208301906103e9565b01906103e9565b565b6109f460206109ca6109c560016106c6565b610379565b639bb57700906109e933926109dd6100d7565b9586948593849361071e565b83526004830161051e565b03915afa8015610b1857610a0f915f91610aea575b506107ce565b33829082610a3d7f0581ef4049729806dc921669d88c3a8d3da8ef7c200e041bb79814c2666dfd3992610931565b92610a52610a496100d7565b9283928361093d565b0390a2610a67610a626002610974565b61027a565b9063155e2d1b9133919392813b15610ae5575f610a9791610aa28296610a8b6100d7565b9889978896879561071e565b855260048501610981565b03925af18015610ae057610ab4575b50565b610ad3905f3d8111610ad9575b610acb81836106f5565b8101906107f7565b5f610ab1565b503d610ac1565b610765565b6106d3565b610b0b915060203d8111610b11575b610b0381836106f5565b810190610747565b5f610a09565b503d610af9565b610765565b5f7f4e6f742061207265676973746572656420647269766572000000000000000000910152565b610b5160176020926105f8565b610b5a81610b1d565b0190565b610b739060208101905f818303910152610b44565b90565b15610b7d57565b610b856100d7565b62461bcd60e51b815280610b9b60048201610b5e565b0390fd5b610be06020610bb6610bb160016106c6565b610379565b639bb5770090610bd53392610bc96100d7565b9586948593849361071e565b83526004830161051e565b03915afa8015610c3357610bfb915f91610c05575b50610b76565b610c03610c38565b565b610c26915060203d8111610c2c575b610c1e81836106f5565b810190610747565b5f610bf5565b503d610c14565b610765565b610c796020610c4f610c4a60016106c6565b610379565b639bb5770090610c6e3392610c626100d7565b9586948593849361071e565b83526004830161051e565b03915afa8015610d9357610c94915f91610d65575b506107ce565b610ca6610ca160016106c6565b610379565b63928d300e33823b15610d6057610cdc92610cd15f8094610cc56100d7565b9687958694859361071e565b83526004830161051e565b03925af18015610d5b57610d2f575b5033610d177f07c755342db70f3cd9b012463bcfdc68a1009115e2f9910e5562f81d73e5c22591610931565b90610d206100d7565b80610d2a8161013d565b0390a2565b610d4e905f3d8111610d54575b610d4681836106f5565b8101906107f7565b5f610ceb565b503d610d3c565b610765565b6106d3565b610d86915060203d8111610d8c575b610d7e81836106f5565b810190610747565b5f610c8e565b503d610d74565b610765565b610da0610b9f565b565b5f7f416c726561647920726567697374657265640000000000000000000000000000910152565b610dd660126020926105f8565b610ddf81610da2565b0190565b610df89060208101905f818303910152610dc9565b90565b15610e0257565b610e0a6100d7565b62461bcd60e51b815280610e2060048201610de3565b0390fd5b9190610e37905f602085019401906103e9565b565b610e7a6020610e50610e4b60016106c6565b610379565b639bb5770090610e6f3392610e636100d7565b9586948593849361071e565b83526004830161051e565b03915afa908115610fa857610ea091610e9b915f91610f7a575b50156103f6565b610dfb565b610eb2610ead60016106c6565b610379565b63b751e33434919091903390803b15610f7557610ee25f93610eed95610ed66100d7565b9687958694859361071e565b83526004830161051e565b03925af18015610f7057610f44575b50333490610f3f610f2d7fc634334b1de4f0d057a70fea9afb7bb40b003525a4f2a3690280f99a578bac8792610931565b92610f366100d7565b91829182610e24565b0390a2565b610f63905f3d8111610f69575b610f5b81836106f5565b8101906107f7565b5f610efc565b503d610f51565b610765565b6106d3565b610f9b915060203d8111610fa1575b610f9381836106f5565b810190610747565b5f610e94565b503d610f89565b610765565b5f90565b5f90565b5f90565b90505190610fc6826100fc565b565b90505190610fd582610178565b565b919060a08382031261102857610fef815f8501610fb9565b92610ffd8260208301610fc8565b9261102561100e8460408501610fc8565b9361101c8160608601610fc8565b93608001610738565b90565b6100e1565b61109c90611039610fad565b50611042610fb1565b5061104b610fb1565b50611054610fb1565b5061105d610fb5565b5060a061107261106d60016106c6565b610379565b630c5ae4e59061109133926110856100d7565b9687948593849361071e565b83526004830161051e565b03915afa80156110f9575f80808080939195929690946110bf575b509493929190565b9350509350506110e6915060a03d81116110f2575b6110de81836106f5565b810190610fd7565b91935f959193956110b7565b503d6110d4565b610765565b61111061110b6002610974565b61027a565b90637981d62490823b1561118a576111479261113c5f80946111306100d7565b9687958694859361071e565b835260048301610e24565b03925af1801561118557611159575b50565b611178905f3d811161117e575b61117081836106f5565b8101906107f7565b5f611156565b503d611166565b610765565b6106d3565b6111a161119c6002610974565b61027a565b9063ae7784d790823b1561121b576111d8926111cd5f80946111c16100d7565b9687958694859361071e565b835260048301610e24565b03925af18015611216576111ea575b50565b611209905f3d811161120f575b61120181836106f5565b8101906107f7565b5f6111e7565b503d6111f7565b610765565b6106d3565b61124d906112483361124261123c6112375f6105eb565b6100f0565b916100f0565b1461065a565b6112b6565b565b61125890610252565b90565b6112649061124f565b90565b5f1b90565b9061127d60018060a01b0391611267565b9181191691161790565b6112909061124f565b90565b90565b906112ab6112a66112b292611287565b611293565b825461126c565b9055565b6112c26112c99161125b565b6001611296565b565b6112d490611220565b565b5f7f446f6e27742073656e6420455448206469726563746c79000000000000000000910152565b61130a60176020926105f8565b611313816112d6565b0190565b61132c9060208101905f8183039101526112fd565b90565b6113376100d7565b62461bcd60e51b81528061134d60048201611317565b0390fdfea2646970667358221220fb1910598dac1b2287e2841f4a0be48377c3a34ba2e4e4b9c786ecc698bbe28264736f6c634300081c0033","linkReferences":{}},"methodIdentifiers":{"confirmArrival(uint256)":"ae7784d7","confirmDeparture(uint256)":"7981d624","incrementRideCount(address)":"17910cae","owner()":"8da5cb5b","proposeRidePrice(uint256,uint256)":"227df654","registerAsDriver()":"3eef3b86","registration()":"443bd1d0","request()":"338cdca1","updateRegistrationAddress(address)":"bf79a23a","viewMyDriverData()":"4f0d1b49","withdrawRequest()":"380e687a"},"id":17}