{"abi":[{"type":"constructor","inputs":[{"name":"registrationAddress","type":"address","internalType":"address"},{"name":"requestAddress","type":"address","internalType":"address"}],"stateMutability":"nonpayable"},{"type":"function","name":"confirmArrival","inputs":[{"name":"rideId","type":"uint256","internalType":"uint256"}],"outputs":[],"stateMutability":"nonpayable"},{"type":"function","name":"confirmDeparture","inputs":[{"name":"rideId","type":"uint256","internalType":"uint256"}],"outputs":[],"stateMutability":"nonpayable"},{"type":"function","name":"incrementRideCount","inputs":[{"name":"riderAddress","type":"address","internalType":"address"}],"outputs":[],"stateMutability":"nonpayable"},{"type":"function","name":"owner","inputs":[],"outputs":[{"name":"","type":"address","internalType":"address"}],"stateMutability":"view"},{"type":"function","name":"receiveRideOffer","inputs":[{"name":"rider","type":"address","internalType":"address"},{"name":"driver","type":"address","internalType":"address"},{"name":"price","type":"uint256","internalType":"uint256"}],"outputs":[],"stateMutability":"nonpayable"},{"type":"function","name":"registerAsRider","inputs":[],"outputs":[],"stateMutability":"nonpayable"},{"type":"function","name":"registration","inputs":[],"outputs":[{"name":"","type":"address","internalType":"contract IRiderRegistration"}],"stateMutability":"view"},{"type":"function","name":"request","inputs":[],"outputs":[{"name":"","type":"address","internalType":"contract IRideRequestContract"}],"stateMutability":"view"},{"type":"function","name":"requestRide","inputs":[{"name":"startLocation","type":"string","internalType":"string"},{"name":"endLocation","type":"string","internalType":"string"},{"name":"startTime","type":"string","internalType":"string"},{"name":"preferences","type":"string","internalType":"string"}],"outputs":[{"name":"rideId","type":"uint256","internalType":"uint256"}],"stateMutability":"nonpayable"},{"type":"function","name":"selectBestOffer","inputs":[{"name":"rideId","type":"uint256","internalType":"uint256"}],"outputs":[],"stateMutability":"payable"},{"type":"function","name":"sendReview","inputs":[{"name":"rideId","type":"uint256","internalType":"uint256"},{"name":"feedback","type":"string","internalType":"string"}],"outputs":[],"stateMutability":"nonpayable"},{"type":"function","name":"submitPayment","inputs":[{"name":"amount","type":"uint256","internalType":"uint256"}],"outputs":[],"stateMutability":"payable"},{"type":"function","name":"updateRegistrationAddress","inputs":[{"name":"newAddress","type":"address","internalType":"address"}],"outputs":[],"stateMutability":"nonpayable"},{"type":"function","name":"viewMyRiderData","inputs":[],"outputs":[{"name":"riderAddress","type":"address","internalType":"address"},{"name":"registered","type":"bool","internalType":"bool"},{"name":"rideCount","type":"uint256","internalType":"uint256"}],"stateMutability":"view"},{"type":"event","name":"PaymentSubmitted","inputs":[{"name":"rider","type":"address","indexed":true,"internalType":"address"},{"name":"amount","type":"uint256","indexed":false,"internalType":"uint256"}],"anonymous":false},{"type":"event","name":"RideOfferAccepted","inputs":[{"name":"rider","type":"address","indexed":true,"internalType":"address"},{"name":"driver","type":"address","indexed":true,"internalType":"address"},{"name":"price","type":"uint256","indexed":false,"internalType":"uint256"}],"anonymous":false},{"type":"event","name":"RideOfferReceived","inputs":[{"name":"rider","type":"address","indexed":true,"internalType":"address"},{"name":"driver","type":"address","indexed":true,"internalType":"address"},{"name":"price","type":"uint256","indexed":false,"internalType":"uint256"}],"anonymous":false},{"type":"event","name":"RideRequested","inputs":[{"name":"rider","type":"address","indexed":true,"internalType":"address"},{"name":"startLocation","type":"string","indexed":false,"internalType":"string"},{"name":"endLocation","type":"string","indexed":false,"internalType":"string"},{"name":"startTime","type":"string","indexed":false,"internalType":"string"},{"name":"preferences","type":"string","indexed":false,"internalType":"string"}],"anonymous":false},{"type":"event","name":"RiderRegistered","inputs":[{"name":"rider","type":"address","indexed":true,"internalType":"address"}],"anonymous":false}],"bytecode":{"object":"0x6080604052346100305761001a610014610104565b9061022e565b610022610035565b611be66102618239611be690f35b61003b565b60405190565b5f80fd5b601f801991011690565b634e487b7160e01b5f52604160045260245ffd5b906100679061003f565b810190811060018060401b0382111761007f57604052565b610049565b90610097610090610035565b928361005d565b565b5f80fd5b60018060a01b031690565b6100b19061009d565b90565b6100bd816100a8565b036100c457565b5f80fd5b905051906100d5826100b4565b565b91906040838203126100ff57806100f36100fc925f86016100c8565b936020016100c8565b90565b610099565b610122611e478038038061011781610084565b9283398101906100d7565b9091565b5f1b90565b9061013c60018060a01b0391610126565b9181191691161790565b90565b61015d6101586101629261009d565b610146565b61009d565b90565b61016e90610149565b90565b61017a90610165565b90565b90565b9061019561019061019c92610171565b61017d565b825461012b565b9055565b6101a990610149565b90565b6101b5906101a0565b90565b6101c1906101a0565b90565b90565b906101dc6101d76101e3926101b8565b6101c4565b825461012b565b9055565b6101f090610149565b90565b6101fc906101e7565b90565b610208906101e7565b90565b90565b9061022361021e61022a926101ff565b61020b565b825461012b565b9055565b61025e9161025261024b61025793610246335f610180565b6101ac565b60016101c7565b6101f3565b600261020e565b56fe60806040526004361015610013575b6107df565b61001d5f356100fc565b806301611f7d146100f757806317910cae146100f25780632cdd4973146100ed578063338cdca1146100e85780633f11ec0a146100e3578063443bd1d0146100de5780634d764643146100d95780637981d624146100d45780637f8308d8146100cf57806385b3a7db146100ca5780638a79f33e146100c55780638da5cb5b146100c0578063ae7784d7146100bb5763bf79a23a0361000e576107ac565b610779565b610744565b6106b1565b6105b9565b6104f4565b610487565b610454565b61041f565b610388565b610353565b61028d565b610219565b610197565b60e01c90565b60405190565b5f80fd5b5f80fd5b5f91031261011a57565b61010c565b60018060a01b031690565b6101339061011f565b90565b61013f9061012a565b9052565b151590565b61015190610143565b9052565b90565b61016190610155565b9052565b60409061018e610195949695939661018460608401985f850190610136565b6020830190610148565b0190610158565b565b346101ca576101a7366004610110565b6101c66101b26108f1565b6101bd939193610102565b93849384610165565b0390f35b610108565b5f80fd5b6101dc8161012a565b036101e357565b5f80fd5b905035906101f4826101d3565b565b9060208282031261020f5761020c915f016101e7565b90565b61010c565b5f0190565b346102475761023161022c3660046101f6565b610c4e565b610239610102565b8061024381610214565b0390f35b610108565b61025581610155565b0361025c57565b5f80fd5b9050359061026d8261024c565b565b9060208282031261028857610285915f01610260565b90565b61010c565b6102a061029b36600461026f565b6111f4565b6102a8610102565b806102b281610214565b0390f35b1c90565b60018060a01b031690565b6102d59060086102da93026102b6565b6102ba565b90565b906102e891546102c5565b90565b6102f760025f906102dd565b90565b90565b61031161030c6103169261011f565b6102fa565b61011f565b90565b610322906102fd565b90565b61032e90610319565b90565b61033a90610325565b9052565b9190610351905f60208501940190610331565b565b3461038357610363366004610110565b61037f61036e6102eb565b610376610102565b9182918261033e565b0390f35b610108565b61039b61039636600461026f565b61137e565b6103a3610102565b806103ad81610214565b0390f35b60018060a01b031690565b6103cc9060086103d193026102b6565b6103b1565b90565b906103df91546103bc565b90565b6103ee60015f906103d4565b90565b6103fa90610319565b90565b610406906103f1565b9052565b919061041d905f602085019401906103fd565b565b3461044f5761042f366004610110565b61044b61043a6103e2565b610442610102565b9182918261040a565b0390f35b610108565b3461048257610464366004610110565b61046c61140b565b610474610102565b8061047e81610214565b0390f35b610108565b346104b55761049f61049a36600461026f565b611576565b6104a7610102565b806104b181610214565b0390f35b610108565b90916060828403126104ef576104ec6104d5845f85016101e7565b936104e381602086016101e7565b93604001610260565b90565b61010c565b346105235761050d6105073660046104ba565b91611607565b610515610102565b8061051f81610214565b0390f35b610108565b5f80fd5b5f80fd5b5f80fd5b909182601f8301121561056e5781359167ffffffffffffffff831161056957602001926001830284011161056457565b610530565b61052c565b610528565b9190916040818403126105b45761058c835f8301610260565b92602082013567ffffffffffffffff81116105af576105ab9201610534565b9091565b6101cf565b61010c565b346105e8576105d26105cc366004610573565b916117dc565b6105da610102565b806105e481610214565b0390f35b610108565b9091608082840312610697575f82013567ffffffffffffffff81116106925783610618918401610534565b929093602082013567ffffffffffffffff811161068d578161063b918401610534565b929093604082013567ffffffffffffffff8111610688578361065e918401610534565b929093606082013567ffffffffffffffff81116106835761067f9201610534565b9091565b6101cf565b6101cf565b6101cf565b6101cf565b61010c565b91906106af905f60208501940190610158565b565b346106eb576106e76106d66106c73660046105ed565b96959095949194939293611a4e565b6106de610102565b9182918261069c565b0390f35b610108565b60018060a01b031690565b61070b90600861071093026102b6565b6106f0565b90565b9061071e91546106fb565b90565b61072c5f5f90610713565b90565b9190610742905f60208501940190610136565b565b3461077457610754366004610110565b61077061075f610721565b610767610102565b9182918261072f565b0390f35b610108565b346107a75761079161078c36600461026f565b611a69565b610799610102565b806107a381610214565b0390f35b610108565b346107da576107c46107bf3660046101f6565b611ba5565b6107cc610102565b806107d681610214565b0390f35b610108565b5f80fd5b5f90565b5f90565b5f90565b5f1c90565b610800610805916107ef565b6103b1565b90565b61081290546107f4565b90565b5f80fd5b601f801991011690565b634e487b7160e01b5f52604160045260245ffd5b9061084190610819565b810190811067ffffffffffffffff82111761085b57604052565b610823565b60e01b90565b90505190610873826101d3565b565b61087e81610143565b0361088557565b5f80fd5b9050519061089682610875565b565b905051906108a58261024c565b565b90916060828403126108dc576108d96108c2845f8501610866565b936108d08160208601610889565b93604001610898565b90565b61010c565b6108e9610102565b3d5f823e3d90fd5b6108f96107e3565b506109026107e7565b5061090b6107eb565b5061094d606061092361091e6001610808565b6103f1565b637edd29fc906109423392610936610102565b95869485938493610860565b83526004830161072f565b03915afa91821561099f575f8080939094610969575b50929190565b9193505061098e915060603d8111610998575b6109868183610837565b8101906108a7565b915f939193610963565b503d61097c565b6108e1565b6109b06109b5916107ef565b6106f0565b90565b6109c290546109a4565b90565b60209181520190565b5f7f4e6f7420617574686f72697a6564000000000000000000000000000000000000910152565b610a02600e6020926109c5565b610a0b816109ce565b0190565b610a249060208101905f8183039101526109f5565b90565b15610a2e57565b610a36610102565b62461bcd60e51b815280610a4c60048201610a0f565b0390fd5b610a7d90610a7833610a72610a6c610a675f6109b8565b61012a565b9161012a565b14610a27565b610b2e565b565b90602082820312610a9857610a95915f01610889565b90565b61010c565b5f7f5269646572206e6f742072656769737465726564000000000000000000000000910152565b610ad160146020926109c5565b610ada81610a9d565b0190565b610af39060208101905f818303910152610ac4565b90565b15610afd57565b610b05610102565b62461bcd60e51b815280610b1b60048201610ade565b0390fd5b5f910312610b2957565b61010c565b610b6f6020610b45610b406001610808565b6103f1565b633016a68e90610b648592610b58610102565b95869485938493610860565b83526004830161072f565b03915afa8015610c4957610b8a915f91610c1b575b50610af6565b610b9c610b976001610808565b6103f1565b90639ea8291890823b15610c1657610bd392610bc85f8094610bbc610102565b96879586948593610860565b83526004830161072f565b03925af18015610c1157610be5575b50565b610c04905f3d8111610c0a575b610bfc8183610837565b810190610b1f565b5f610be2565b503d610bf2565b6108e1565b610815565b610c3c915060203d8111610c42575b610c348183610837565b810190610a7f565b5f610b84565b503d610c2a565b6108e1565b610c5790610a50565b565b610c9b906020610c71610c6c6001610808565b6103f1565b633016a68e90610c903392610c84610102565b96879485938493610860565b83526004830161072f565b03915afa918215610cf057610cc092610cbb915f91610cc2575b50610af6565b610f9b565b565b610ce3915060203d8111610ce9575b610cdb8183610837565b810190610a7f565b5f610cb5565b503d610cd1565b6108e1565b610d01610d06916107ef565b6102ba565b90565b610d139054610cf5565b90565b90610d29610d22610102565b9283610837565b565b67ffffffffffffffff8111610d435760208091020190565b610823565b5f80fd5b9190604083820312610d8657610d7f90610d666040610d16565b93610d73825f8301610866565b5f860152602001610898565b6020830152565b610d48565b90929192610da0610d9b82610d2b565b610d16565b938185526040602086019202830192818411610ddf57915b838310610dc55750505050565b6020604091610dd48486610d4c565b815201920191610db8565b610530565b9080601f83011215610e0257816020610dff93519101610d8b565b90565b610528565b90602082820312610e37575f82015167ffffffffffffffff8111610e3257610e2f9201610de4565b90565b6101cf565b61010c565b5190565b90565b610e57610e52610e5c92610e40565b6102fa565b610155565b90565b5f7f4e6f20726964652070726f706f73616c7320617661696c61626c650000000000910152565b610e93601b6020926109c5565b610e9c81610e5f565b0190565b610eb59060208101905f818303910152610e86565b90565b15610ebf57565b610ec7610102565b62461bcd60e51b815280610edd60048201610ea0565b0390fd5b634e487b7160e01b5f52603260045260245ffd5b90610eff82610e3c565b811015610f10576020809102010190565b610ee1565b610f1f9051610155565b90565b90565b610f39610f34610f3e92610f22565b6102fa565b610155565b90565b6001610f4d9101610155565b90565b610f5a905161012a565b90565b604090610f86610f8d9496959396610f7c60608401985f850190610136565b6020830190610158565b0190610136565b565b610f9890610319565b90565b610fdb5f610fb1610fac6002610d09565b610325565b638481f1fe90610fd08592610fc4610102565b95869485938493610860565b83526004830161069c565b03915afa9081156111ef575f916111cd575b50611012610ffa82610e3c565b61100c6110065f610e43565b91610155565b11610eb8565b61101b5f610e43565b9161103b60206110348461102e5f610e43565b90610ef5565b5101610f15565b906110466001610f25565b5b8061106261105c61105787610e3c565b610155565b91610155565b10156110cc5761107f6020611078868490610ef5565b5101610f15565b61109161108b85610155565b91610155565b106110a5575b6110a090610f41565b611047565b935090506110c060206110b9848690610ef5565b5101610f15565b906110a0849050611097565b50926110dd5f916110e49394610ef5565b5101610f50565b916110f76110f26002610d09565b610325565b63cf543d239134919291923391938690823b156111c8575f9461113661112b9361111f610102565b98899788968795610860565b855260048501610f5d565b03925af180156111c357611197575b503391909161119261118061117a7fbfb6efca088b3305faed92eef18abdba93185b1257cc7852ce6225eec8f6338193610f8f565b93610f8f565b93611189610102565b9182918261069c565b0390a3565b6111b6905f3d81116111bc575b6111ae8183610837565b810190610b1f565b5f611145565b503d6111a4565b6108e1565b610815565b6111e991503d805f833e6111e18183610837565b810190610e07565b5f610fed565b6108e1565b6111fd90610c59565b565b6112419060206112176112126001610808565b6103f1565b633016a68e90611236339261122a610102565b96879485938493610860565b83526004830161072f565b03915afa9182156112965761126692611261915f91611268575b50610af6565b61131d565b565b611289915060203d811161128f575b6112818183610837565b810190610a7f565b5f61125b565b503d611277565b6108e1565b5f7f496e636f7272656374207061796d656e7420616d6f756e740000000000000000910152565b6112cf60186020926109c5565b6112d88161129b565b0190565b6112f19060208101905f8183039101526112c2565b90565b156112fb57565b611303610102565b62461bcd60e51b815280611319600482016112dc565b0390fd5b6113393461133361132d84610155565b91610155565b146112f4565b336113796113677fc316f20e64ae406ed0ec8373c2c534a8b8dd8a257803c151e9d573910a1015ff92610f8f565b92611370610102565b9182918261069c565b0390a2565b611387906111ff565b565b5f7f416c726561647920726567697374657265640000000000000000000000000000910152565b6113bd60126020926109c5565b6113c681611389565b0190565b6113df9060208101905f8183039101526113b0565b90565b156113e957565b6113f1610102565b62461bcd60e51b815280611407600482016113ca565b0390fd5b61144c602061142261141d6001610808565b6103f1565b633016a68e906114413392611435610102565b95869485938493610860565b83526004830161072f565b03915afa908115611571576114729161146d915f91611543575b5015610143565b6113e2565b61148461147f6001610808565b6103f1565b638814a0a033823b1561153e576114ba926114af5f80946114a3610102565b96879586948593610860565b83526004830161072f565b03925af180156115395761150d575b50336114f57f414968ba6fd95ae6c18e9206736934d3eeaa11a8fe10aeb5136d57ab717183f691610f8f565b906114fe610102565b8061150881610214565b0390a2565b61152c905f3d8111611532575b6115248183610837565b810190610b1f565b5f6114c9565b503d61151a565b6108e1565b610815565b611564915060203d811161156a575b61155c8183610837565b810190610a7f565b5f611466565b503d611552565b6108e1565b6115886115836002610d09565b610325565b90637981d62490823b15611602576115bf926115b45f80946115a8610102565b96879586948593610860565b83526004830161069c565b03925af180156115fd576115d1575b50565b6115f0905f3d81116115f6575b6115e88183610837565b810190610b1f565b5f6115ce565b503d6115de565b6108e1565b610815565b61164f61163d6116377fdde9a92a96c01f8174d541d2570625f9978007c8311fc04f109a7bef195a2e6793610f8f565b93610f8f565b93611646610102565b9182918261069c565b0390a3565b906116989291602061166e6116696001610808565b6103f1565b633016a68e9061168d3392611681610102565b98899485938493610860565b83526004830161072f565b03915afa9384156116ed576116bd946116b8915f916116bf575b50610af6565b611748565b565b6116e0915060203d81116116e6575b6116d88183610837565b810190610a7f565b5f6116b2565b503d6116ce565b6108e1565b90825f939282370152565b9190611717816117108161171c956109c5565b80956116f2565b610819565b0190565b9161174593919261173860408201945f830190610158565b60208185039101526116fd565b90565b9061175b6117566002610d09565b610325565b6385b3a7db92919392813b156117d7575f61178991611794829661177d610102565b98899788968795610860565b855260048501611720565b03925af180156117d2576117a6575b50565b6117c5905f3d81116117cb575b6117bd8183610837565b810190610b1f565b5f6117a3565b503d6117b3565b6108e1565b610815565b906117e79291611654565b565b90611833989796959493929160206118096118046001610808565b6103f1565b633016a68e90611828339261181c610102565b9e8f9485938493610860565b83526004830161072f565b03915afa998a15611889576118589a611853915f9161185b575b50610af6565b611961565b90565b61187c915060203d8111611882575b6118748183610837565b810190610a7f565b5f61184d565b503d61186a565b6108e1565b9694926118d0946118b46118c2936118de9b999560808c01918c5f8185039101526116fd565b9189830360208b01526116fd565b9186830360408801526116fd565b9260608185039101526116fd565b90565b906020828203126118fa576118f7915f01610898565b90565b61010c565b97959390946119348961195e9b9995611942956119266119509a5f60a08601950190610136565b8c60208185039101526116fd565b9189830360408b01526116fd565b9186830360608801526116fd565b9260808185039101526116fd565b90565b926119fa949298602098611a0593985f9650338a908d86926119c08d8b908789918b936119ae7f7dcc132709199f208ed3343b1e4f3e87a2b0b4f20d0640a4c260a2312ef18c3f99610f8f565b996119b7610102565b9889988961188e565b0390a26119d56119d06002610d09565b610325565b98635b37036f96339b9d959091929394956119ee610102565b9e8f9d8e9c8d9b610860565b8b5260048b016118ff565b03925af1908115611a49575f91611a1b575b5090565b611a3c915060203d8111611a42575b611a348183610837565b8101906118e1565b5f611a17565b503d611a2a565b6108e1565b90611a6697969594939291611a616107eb565b6117e9565b90565b611a7b611a766002610d09565b610325565b9063ae7784d790823b15611af557611ab292611aa75f8094611a9b610102565b96879586948593610860565b83526004830161069c565b03925af18015611af057611ac4575b50565b611ae3905f3d8111611ae9575b611adb8183610837565b810190610b1f565b5f611ac1565b503d611ad1565b6108e1565b610815565b611b2790611b2233611b1c611b16611b115f6109b8565b61012a565b9161012a565b14610a27565b611b90565b565b611b32906102fd565b90565b611b3e90611b29565b90565b5f1b90565b90611b5760018060a01b0391611b41565b9181191691161790565b611b6a90611b29565b90565b90565b90611b85611b80611b8c92611b61565b611b6d565b8254611b46565b9055565b611b9c611ba391611b35565b6001611b70565b565b611bae90611afa565b56fea26469706673582212206059e3a6169c40ef9594c2a96bf388464aeaaa87b273129b95f838319a0751c064736f6c634300081c0033","linkReferences":{}},"methodIdentifiers":{"confirmArrival(uint256)":"ae7784d7","confirmDeparture(uint256)":"7981d624","incrementRideCount(address)":"17910cae","owner()":"8da5cb5b","receiveRideOffer(address,address,uint256)":"7f8308d8","registerAsRider()":"4d764643","registration()":"443bd1d0","request()":"338cdca1","requestRide(string,string,string,string)":"8a79f33e","selectBestOffer(uint256)":"2cdd4973","sendReview(uint256,string)":"85b3a7db","submitPayment(uint256)":"3f11ec0a","updateRegistrationAddress(address)":"bf79a23a","viewMyRiderData()":"01611f7d"},"id":20}