{"abi":[{"type":"constructor","inputs":[{"name":"registrationAddress","type":"address","internalType":"address"}],"stateMutability":"nonpayable"},{"type":"function","name":"addAllowedCaller","inputs":[{"name":"caller","type":"address","internalType":"address"}],"outputs":[],"stateMutability":"nonpayable"},{"type":"function","name":"allowedCallers","inputs":[{"name":"","type":"address","internalType":"address"}],"outputs":[{"name":"","type":"bool","internalType":"bool"}],"stateMutability":"view"},{"type":"function","name":"getDriverScore","inputs":[{"name":"driver","type":"address","internalType":"address"}],"outputs":[{"name":"","type":"uint256","internalType":"uint256"}],"stateMutability":"view"},{"type":"function","name":"owner","inputs":[],"outputs":[{"name":"","type":"address","internalType":"address"}],"stateMutability":"view"},{"type":"function","name":"registration","inputs":[],"outputs":[{"name":"","type":"address","internalType":"contract IDriverRegistration"}],"stateMutability":"view"},{"type":"function","name":"removeAllowedCaller","inputs":[{"name":"caller","type":"address","internalType":"address"}],"outputs":[],"stateMutability":"nonpayable"},{"type":"function","name":"requestDriverScoreUpdate","inputs":[{"name":"driver","type":"address","internalType":"address"},{"name":"feedback","type":"string","internalType":"string"}],"outputs":[],"stateMutability":"nonpayable"},{"type":"function","name":"transferOwnership","inputs":[{"name":"newOwner","type":"address","internalType":"address"}],"outputs":[],"stateMutability":"nonpayable"},{"type":"function","name":"updateDriverScore","inputs":[{"name":"driver","type":"address","internalType":"address"},{"name":"newScore","type":"uint256","internalType":"uint256"}],"outputs":[],"stateMutability":"nonpayable"},{"type":"function","name":"updateRegistrationAddress","inputs":[{"name":"newAddress","type":"address","internalType":"address"}],"outputs":[],"stateMutability":"nonpayable"},{"type":"event","name":"DriverScoreUpdateRequested","inputs":[{"name":"driver","type":"address","indexed":true,"internalType":"address"},{"name":"feedback","type":"string","indexed":false,"internalType":"string"}],"anonymous":false},{"type":"event","name":"OracleResponseReceived","inputs":[{"name":"driver","type":"address","indexed":true,"internalType":"address"},{"name":"newScore","type":"uint256","indexed":false,"internalType":"uint256"}],"anonymous":false}],"bytecode":{"object":"0x60806040523461002f576100196100146100f4565b6101d6565b610021610034565b610d1f6101f68239610d1f90f35b61003a565b60405190565b5f80fd5b601f801991011690565b634e487b7160e01b5f52604160045260245ffd5b906100669061003e565b810190811060018060401b0382111761007e57604052565b610048565b9061009661008f610034565b928361005c565b565b5f80fd5b60018060a01b031690565b6100b09061009c565b90565b6100bc816100a7565b036100c357565b5f80fd5b905051906100d4826100b3565b565b906020828203126100ef576100ec915f016100c7565b90565b610098565b610112610f158038038061010781610083565b9283398101906100d6565b90565b5f1b90565b9061012b60018060a01b0391610115565b9181191691161790565b90565b61014c6101476101519261009c565b610135565b61009c565b90565b61015d90610138565b90565b61016990610154565b90565b90565b9061018461017f61018b92610160565b61016c565b825461011a565b9055565b61019890610138565b90565b6101a49061018f565b90565b6101b09061018f565b90565b90565b906101cb6101c66101d2926101a7565b6101b3565b825461011a565b9055565b6101ec6101f3916101e7335f61016f565b61019b565b60016101b6565b56fe60806040526004361015610013575b6105da565b61001d5f356100bc565b806328bbe447146100b7578063443bd1d0146100b2578063613a7b48146100ad578063687e5fcd146100a85780637b334154146100a35780638da5cb5b1461009e5780639546f95e146100995780639804576914610094578063bf79a23a1461008f5763f2fde38b0361000e576105a7565b610574565b61053f565b6104ea565b6104b5565b61041f565b61035d565b610299565b610246565b610166565b60e01c90565b60405190565b5f80fd5b5f80fd5b5f80fd5b60018060a01b031690565b6100e8906100d4565b90565b6100f4816100df565b036100fb57565b5f80fd5b9050359061010c826100eb565b565b90565b61011a8161010e565b0361012157565b5f80fd5b9050359061013282610111565b565b919060408382031261015c5780610150610159925f86016100ff565b93602001610125565b90565b6100cc565b5f0190565b346101955761017f610179366004610134565b90610697565b6101876100c2565b8061019181610161565b0390f35b6100c8565b5f9103126101a457565b6100cc565b1c90565b60018060a01b031690565b6101c89060086101cd93026101a9565b6101ad565b90565b906101db91546101b8565b90565b6101ea60015f906101d0565b90565b90565b6102046101ff610209926100d4565b6101ed565b6100d4565b90565b610215906101f0565b90565b6102219061020c565b90565b61022d90610218565b9052565b9190610244905f60208501940190610224565b565b346102765761025636600461019a565b6102726102616101de565b6102696100c2565b91829182610231565b0390f35b6100c8565b9060208282031261029457610291915f016100ff565b90565b6100cc565b346102c7576102b16102ac36600461027b565b6108ab565b6102b96100c2565b806102c381610161565b0390f35b6100c8565b5f80fd5b5f80fd5b5f80fd5b909182601f830112156103125781359167ffffffffffffffff831161030d57602001926001830284011161030857565b6102d4565b6102d0565b6102cc565b91909160408184031261035857610330835f83016100ff565b92602082013567ffffffffffffffff81116103535761034f92016102d8565b9091565b6100d0565b6100cc565b3461038c57610376610370366004610317565b91610951565b61037e6100c2565b8061038881610161565b0390f35b6100c8565b61039a9061020c565b90565b906103a790610391565b5f5260205260405f2090565b60ff1690565b6103c99060086103ce93026101a9565b6103b3565b90565b906103dc91546103b9565b90565b6103f5906103f06002915f9261039d565b6103d1565b90565b151590565b610406906103f8565b9052565b919061041d905f602085019401906103fd565b565b3461044f5761044b61043a61043536600461027b565b6103df565b6104426100c2565b9182918261040a565b0390f35b6100c8565b60018060a01b031690565b61046f90600861047493026101a9565b610454565b90565b90610482915461045f565b90565b6104905f5f90610477565b90565b61049c906100df565b9052565b91906104b3905f60208501940190610493565b565b346104e5576104c536600461019a565b6104e16104d0610485565b6104d86100c2565b918291826104a0565b0390f35b6100c8565b34610518576105026104fd36600461027b565b6109a4565b61050a6100c2565b8061051481610161565b0390f35b6100c8565b6105269061010e565b9052565b919061053d905f6020850194019061051d565b565b3461056f5761056b61055a61055536600461027b565b610ae9565b6105626100c2565b9182918261052a565b0390f35b6100c8565b346105a25761058c61058736600461027b565b610ba3565b6105946100c2565b8061059e81610161565b0390f35b6100c8565b346105d5576105bf6105ba36600461027b565b610cde565b6105c76100c2565b806105d181610161565b0390f35b6100c8565b5f80fd5b5f1c90565b6105ef6105f4916105de565b6101ad565b90565b61060190546105e3565b90565b5f80fd5b601f801991011690565b634e487b7160e01b5f52604160045260245ffd5b9061063090610608565b810190811067ffffffffffffffff82111761064a57604052565b610612565b60e01b90565b5f91031261065f57565b6100cc565b91602061068592949361067e60408201965f830190610493565b019061051d565b565b61068f6100c2565b3d5f823e3d90fd5b8082906106d96106c77f04f05fbe1f6a43d41e772f86925d7b439475570e042b84453008e8631e583f5c92610391565b926106d06100c2565b9182918261052a565b0390a26106ee6106e960016105f7565b610218565b916328bbe447919092803b156107695761071b5f809461072661070f6100c2565b9788968795869461064f565b845260048401610664565b03925af1801561076457610738575b50565b610757905f3d811161075d575b61074f8183610626565b810190610655565b5f610735565b503d610745565b610687565b610604565b61077a61077f916105de565b610454565b90565b61078c905461076e565b90565b60209181520190565b5f7f4e6f7420617574686f72697a6564000000000000000000000000000000000000910152565b6107cc600e60209261078f565b6107d581610798565b0190565b6107ee9060208101905f8183039101526107bf565b90565b156107f857565b6108006100c2565b62461bcd60e51b815280610816600482016107d9565b0390fd5b610847906108423361083c6108366108315f610782565b6100df565b916100df565b146107f1565b610893565b565b5f1b90565b9061085a60ff91610849565b9181191691161790565b61086d906103f8565b90565b90565b9061088861088361088f92610864565b610870565b825461084e565b9055565b6108a9906108a4600191600261039d565b610873565b565b6108b49061081a565b565b906108c1929161090b565b565b90825f939282370152565b91906108e8816108e1816108ed9561078f565b80956108c3565b610608565b0190565b90916109089260208301925f8185039101526108ce565b90565b90916109377f94a9866cb83eb7abbfba095c7b5b30fa71997f3082153042c35da8f3298fcd2d92610391565b9261094c6109436100c2565b928392836108f1565b0390a2565b9061095c92916108b6565b565b61098b906109863361098061097a6109755f610782565b6100df565b916100df565b146107f1565b61098d565b565b6109a29061099d5f91600261039d565b610873565b565b6109ad9061095e565b565b5f90565b906109bd91610a57565b90565b905051906109cd826100eb565b565b905051906109dc82610111565b565b6109e7816103f8565b036109ee57565b5f80fd5b905051906109ff826109de565b565b919060a083820312610a5257610a19815f85016109c0565b92610a2782602083016109cf565b92610a4f610a3884604085016109cf565b93610a4681606086016109cf565b936080016109f2565b90565b6100cc565b610a989160a09150610a71610a6c60016105f7565b610218565b610a8d630c5ae4e5610a816100c2565b9586948593849361064f565b8352600483016104a0565b03915afa908115610ae4575f808093915050610ab3575b5090565b610ad4915060a03d8111610add575b610acc8183610626565b810190610a01565b50509150610aaf565b503d610ac2565b610687565b610afa90610af56109af565b6109b3565b90565b610b2a90610b2533610b1f610b19610b145f610782565b6100df565b916100df565b146107f1565b610b8e565b565b610b35906101f0565b90565b610b4190610b2c565b90565b90610b5560018060a01b0391610849565b9181191691161790565b610b6890610b2c565b90565b90565b90610b83610b7e610b8a92610b5f565b610b6b565b8254610b44565b9055565b610b9a610ba191610b38565b6001610b6e565b565b610bac90610afd565b565b610bdb90610bd633610bd0610bca610bc55f610782565b6100df565b916100df565b146107f1565b610cad565b565b90565b610bf4610bef610bf992610bdd565b6101ed565b6100d4565b90565b610c0590610be0565b90565b5f7f4e6577206f776e657220697320746865207a65726f2061646472657373000000910152565b610c3c601d60209261078f565b610c4581610c08565b0190565b610c5e9060208101905f818303910152610c2f565b90565b15610c6857565b610c706100c2565b62461bcd60e51b815280610c8660048201610c49565b0390fd5b90565b90610ca2610c9d610ca992610391565b610c8a565b8254610b44565b9055565b610cdc90610cd681610ccf610cc9610cc45f610bfc565b6100df565b916100df565b1415610c61565b5f610c8d565b565b610ce790610bae565b56fea26469706673582212209543b81f8fbd90bbc32e596d19c63d6feeffc4cfdb9f9b1b103b407f6a8d065664736f6c634300081c0033","linkReferences":{}},"methodIdentifiers":{"addAllowedCaller(address)":"613a7b48","allowedCallers(address)":"7b334154","getDriverScore(address)":"98045769","owner()":"8da5cb5b","registration()":"443bd1d0","removeAllowedCaller(address)":"9546f95e","requestDriverScoreUpdate(address,string)":"687e5fcd","transferOwnership(address)":"f2fde38b","updateDriverScore(address,uint256)":"28bbe447","updateRegistrationAddress(address)":"bf79a23a"},"id":21}